:100000000C947B000C94A3000C94A3000C94AC0003
:100010000C94A3000C94A3000C94A3000C94A300D4
:100020000C94A3000C94A3000C94A3000C94E7166A
:100030000C94A3000C94A3000C94A3000C94A300B4
:100040000C9439150C94A3000C9490120C94C212C9
:100050000C94A3000C94A3000C94A3000C94A30094
:100060000C94A41A0C94A300084AD73B3BCE016E13
:1000700084BCBFFDC12F3D6C74319ABD56833DDAFF
:100080003D00C77F11BED9E4BB4C3E916BAAAABE0E
:10009000000000803F000000000800020100000393
:1000A0000407000000000000000001020408102006
:1000B00040800102040810200102040810200404FA
:1000C0000404040404040202020202020303030300
:1000D00003030000000023002600290000000000A8
:1000E000250028002B0000000000240027002A0023
:1000F000BE05F212AB1911241FBECFEFD8E0DEBF50
:10010000CDBF11E0A0E0B1E0E8E6F8E302C0059061
:100110000D92A03AB107D9F723E0A0EAB1E001C0FF
:100120001D92AC3FB207E1F710E0CBE7D0E004C08E
:100130002197FE010E942C1CC837D107C9F70E94E5
:1001400020130C94321C0C940000DC01ED91FC9106
:100150000190F081E02D09941F920F920FB60F923B
:1001600011242F933F934F935F936F937F938F93BC
:100170009F93AF93BF93EF93FF930E948315609378
:10018000CC017093CD018093CE019093CF0120914B
:10019000EB01189B0EC021111EC021E02093EB0142
:1001A0006093DC017093DD018093DE019093DF01A9
:1001B00012C0213081F41092EB014091DC0150918A
:1001C000DD0128E030E0241B350B260F371F30936C
:1001D000E7012093E6012091EA01199B0EC021114D
:1001E0001BC021E02093EA016093D8017093D901EC
:1001F0008093DA019093DB010FC0213069F41092F3
:10020000EA012091D8013091D901AB01421B530B77
:100210005093E5014093E4012091E9011A9B0EC03F
:1002200021111EC021E02093E9016093D401709355
:10023000D5018093D6019093D70112C0213081F46B
:100240001092E9014091D4015091D50124E630E0AB
:10025000241B350B260F371F3093E3012093E20157
:100260002091E8011B9B0EC021111EC021E02093AC
:10027000E8016093D0017093D1018093D2019093F3
:10028000D30112C0213081F41092E8014091D001D5
:100290005091D10128EE3FEF241B350B620F731FE5
:1002A0007093E1016093E001FF91EF91BF91AF91F5
:1002B0009F918F917F916F915F914F913F912F917E
:1002C0000F900FBE0F901F9018954F925F926F92F4
:1002D0007F928F929F92AF92BF92CF92DF92EF92D6
:1002E000FF920F931F93CF93DF93CDB7DEB728977D
:1002F0000FB6F894DEBF0FBECDBF4A015B01098384
:100300001A832B833C83893027E0920714F088E01E
:1003100097E0BC01990F880B990B0E9410102B01DC
:100320003C0129813A814B815C810E94830E6D835F
:100330007E838F839887A50194010E94830EA70175
:1003400096010E94820E0E94D80F70935D02609306
:100350005C0229813A814B815C81C301B2010E9418
:10036000820E2B013C019B01AC01C501B4010E942E
:10037000830EA70196010E94830E0E94D80F7093EE
:100380005B0260935A02A5019401C301B2010E946D
:10039000820EA70196010E94820E0E94D80F7093D0
:1003A000590260935802A50194016D817E818F816D
:1003B00098850E94820EA70196010E94830E0E94DA
:1003C000D80F709357026093560283E592E00E9423
:1003D0004A1860915802709159028DE492E00E948F
:1003E0004A1860915C0270915D0280E592E00E9483
:1003F0004A1860915A0270915B028AE492E0289652
:100400000FB6F894DEBF0FBECDBFDF91CF911F9125
:100410000F91FF90EF90DF90CF90BF90AF909F90A3
:100420008F907F906F905F904F900C944A1866E287
:1004300071E080E792E00E946E13409118015091A4
:10044000190160911A0170911B0126E030E080E7EC
:1004500092E00E94251562E271E080E792E00E943E
:100460006E136AE271E080E792E00E946E134091A1
:10047000140150911501609116017091170126E049
:1004800030E080E792E00E94251562E271E080E7AB
:1004900092E00E946E136EE271E080E792E00E94AB
:1004A0006E134091100150911101609112017091F1
:1004B000130126E030E080E792E00E94251560E21B
:1004C00071E080E792E00E946E1365E271E080E7E0
:1004D00092E00E946E1340911801509119016091B1
:1004E0001A0170911B0126E030E080E792E00E9443
:1004F000251562E271E080E792E00E946E1369E2E6
:1005000071E080E792E00E946E13409114015091D7
:100510001501609116017091170126E030E080E727
:1005200092E00E94251562E271E080E792E00E946D
:100530006E136DE271E080E792E00E946E134091CD
:10054000100150911101609112017091130126E088
:1005500030E080E792E00C9427151092260210926A
:10056000270210922802109229021092160210926D
:100570001702109218021092190210921202109291
:10058000130210921402109215021092020210929D
:10059000030210920402109205021092FE011092C2
:1005A000FF0110920002109201021092EE011092CF
:1005B000EF011092F0011092F101109222021092BC
:1005C0002302109224021092250210920E02109221
:1005D0000F02109210021092110208954F925F9232
:1005E0006F927F928F929F92AF92BF92CF92DF9243
:1005F000EF92FF92CF93DF9300D000D000D0CDB721
:10060000DEB72091220230912302409124025091C2
:10061000250260911E0270911F028091200290912C
:1006200021020E94820E6B017C0120911401309105
:10063000150140911601509117010E94F41020916C
:1006400026023091270240912802509129020E94EF
:10065000830E2B013C016093260270932702809346
:1006600028029093290220910E0130910F013E83C0
:100670002D83B901330F880B990B0E9410104B0189
:100680005C019B01AC01C301B2010E94E710181686
:100690004CF48092260290922702A0922802B092F7
:1006A000290223C06D817E81719561957109072EA4
:1006B000000C880B990B0E94101069837A838B833E
:1006C0009C839B01AC01C301B2010E94610F87FFB3
:1006D0000CC089819A81AB81BC8180932602909362
:1006E0002702A0932802B09329022091180130918B
:1006F000190140911A0150911B01C701B6010E94D6
:10070000F410209126023091270240912802509146
:1007100029020E94830E2B013C0120911602309188
:1007200017024091180250911902C701B6010E94A8
:10073000820E2091100130911101409112015091CF
:1007400013010E94F4109B01AC01C301B2010E948D
:10075000830E2B013C019B01AC01C501B4010E9439
:10076000610F87FD1EC06D817E8171956195710954
:10077000072E000C880B990B0E9410104B015C0196
:100780009B01AC01C301B2010E94610F87FD09C04A
:1007900040921A0250921B0260921C0270921D023B
:1007A00008C080921A0290921B02A0921C02B09282
:1007B0001D02C0921602D0921702E0921802F09227
:1007C000190220910E0230910F02409110025091B7
:1007D000110260910A0270910B0280910C029091BB
:1007E0000D020E94820E6B017C0120916802309103
:1007F000690240916A0250916B020E94F4102091AC
:1008000012023091130240911402509115020E947D
:10081000830E2B013C0160931202709313028093AC
:10082000140290931502A0916202B0916302BE83FC
:10083000AD83BD01BB0F880B990B0E9410104B01BB
:100840005C019B01AC01C301B2010E94E7101816C4
:100850004CF48092120290921302A0921402B09271
:10086000150223C06D817E81719561957109072EF6
:10087000000C880B990B0E94101069837A838B837C
:100880009C839B01AC01C301B2010E94610F87FFF1
:100890000CC089819A81AB81BC81809312029093B4
:1008A0001302A0931402B093150220916C023091B0
:1008B0006D0240916E0250916F02C701B6010E9415
:1008C000F4102091120230911302409114025091C1
:1008D00015020E94830E2B013C01209102023091EF
:1008E00003024091040250910502C701B6010E9423
:1008F000820E20916402309165024091660250910F
:1009000067020E94F4109B01AC01C301B2010E9476
:10091000830E2B013C019B01AC01C501B4010E9477
:10092000610F87FD1EC06D817E8171956195710992
:10093000072E000C880B990B0E9410104B015C01D4
:100940009B01AC01C301B2010E94610F87FD09C088
:1009500040920602509207026092080270920902C9
:1009600008C08092060290920702A0920802B092FC
:100970000902C0920202D0920302E0920402F092B5
:1009800005022091FA013091FB014091FC01509148
:10099000FD016091F6017091F7018091F80190914D
:1009A000F9010E94820E6B017C0160932A02709310
:1009B0002B0280932C0290932D02209106013091FE
:1009C000070140910801509109010E94F410209103
:1009D000FE013091FF0140910002509101020E94FE
:1009E000830E2B013C016093FE017093FF01809305
:1009F000000290930102A0910401B0910501BE8311
:100A0000AD83BD01BB0F880B990B0E9410104B01E9
:100A10005C019B01AC01C301B2010E94E7101816F2
:100A20004CF48092FE019092FF01A0920002B092DD
:100A3000010223C06D817E81719561957109072E38
:100A4000000C880B990B0E94101069837A838B83AA
:100A50009C839B01AC01C301B2010E94610F87FF1F
:100A60000CC089819A81AB81BC818093FE019093F7
:100A7000FF01A0930002B093010220910A0130917E
:100A80000B0140910C0150910D01C701B6010E946C
:100A9000F4102091FE013091FF014091000250912D
:100AA00001020E94830E2B013C012091EE01309146
:100AB000EF014091F0015091F101C701B6010E9490
:100AC000820E20915E0230915F024091600250914F
:100AD00061020E94F4109B01AC01C301B2010E94AB
:100AE000830E2B013C019B01AC01C501B4010E94A6
:100AF000610F87FD1EC06D817E81719561957109C1
:100B0000072E000C880B990B0E9410104B015C0102
:100B10009B01AC01C301B2010E94610F87FD09C0B6
:100B20004092F2015092F3016092F4017092F5014B
:100B300008C08092F2019092F301A092F401B09269
:100B4000F501C092EE01D092EF01E092F001F09237
:100B5000F10126960FB6F894DEBF0FBECDBFDF9130
:100B6000CF91FF90EF90DF90CF90BF90AF909F908C
:100B70008F907F906F905F904F90089580911801B3
:100B800090911901A0911A01B0911B0180936C0200
:100B900090936D02A0936E02B0936F028091140146
:100BA00090911501A0911601B091170180936802F0
:100BB00090936902A0936A02B0936B028091100136
:100BC00090911101A0911201B091130180936402E0
:100BD00090936502A0936602B093670280910E0124
:100BE00090910F01909363028093620283E592E0FB
:100BF0000E94A81780E592E00E94A8178DE492E079
:100C00000E94A8178AE492E00C94A817CF93DF9370
:100C1000C82FD62F69E170E08CE393E00E942C1975
:100C20006D2F8CE393E00E94D9186C2F8CE393E036
:100C30000E94D9188CE393E0DF91CF910C94A8190E
:100C400060E287E70E94060663E288E90C940606E4
:100C500080E792E00E946511892B09F402C180E7C8
:100C600092E00E947F11813709F4A8C0813631F5E6
:100C70002AE037ED43E25CE36091180170911901BD
:100C800080911A0190911B010E94820E60931801BD
:100C90007093190180931A0190931B0120E030E0BA
:100CA000A9010E94610F87FFD7C01092180110920E
:100CB000190110921A0110921B01CEC0873709F456
:100CC00099C0833731F52FE632E143E85AE360916A
:100CD00014017091150180911601909117010E94E5
:100CE000820E609314017093150180931601909306
:100CF000170120E030E0A9010E94610F87FFACC01E
:100D00001092140110921501109216011092170101
:100D1000A3C0853609F48AC0843631F52AE037ED60
:100D200043E25CE360911001709111018091120126
:100D3000909113010E94820E609310017093110133
:100D4000809312019093130120E030E0A9010E94EA
:100D5000610F87FF81C01092100110921101109253
:100D600012011092130178C08837A1F4809102011A
:100D700090910301813D974034F080ED97E090938E
:100D80000301809302016091020170910301665F8B
:100D90007F4F08C08A3781F460910201709103018E
:100DA0006A50710970930301609302014AE050E0B8
:100DB00080E792E00C9438148537B9F42AE037EDD7
:100DC00043E25CE3609118017091190180911A016E
:100DD00090911B010E94830E60931801709319017A
:100DE00080931A0190931B0137C08A3609F440CFD3
:100DF0008936B9F42FE632E143E85AE360911401F1
:100E00007091150180911601909117010E94830E37
:100E1000609314017093150180931601909317014C
:100E20001BC08B3609F44FCF8F36C1F42AE037ED63
:100E300043E25CE360911001709111018091120115
:100E4000909113010E94830E609310017093110121
:100E500080931201909313010C9417028C3609F4BD
:100E60005DCF0895EF92FF920F931F93CF93DF937F
:100E70006BE670E08CE393E00E942C1968EA70E066
:100E80008CE393E00E94A5008CE393E00E94A819F4
:100E900046E050E06BE670E08CE393E00E94A51919
:100EA0008CE393E00E9480180697D4F38CE393E0E0
:100EB0000E94881880932E028CE393E00E94881889
:100EC00080932F02F82EE12C80912E02B701682B1F
:100ED000072E000C880B990B0E94101060934002A3
:100EE0007093410280934202909343022091480202
:100EF00030914902203D374091F4209138023091E1
:100F0000390240913A0250913B020E94820E609356
:100F100040027093410280934202909343028CE31B
:100F200093E00E94881880932E028CE393E00E9445
:100F3000881880932F02182F00E080912E02B801AC
:100F4000682B072E000C880B990B0E9410109058EC
:100F50006093440270934502809346029093470247
:100F60002091480230914902203D374091F4209170
:100F700034023091350240913602509137020E947E
:100F8000820E6093440270934502809346029093D0
:100F900047028CE393E00E94881880932E028CE332
:100FA00093E00E94881880932F02D82F80E0C82FEA
:100FB00080912E02BE01682B072E000C880B990B26
:100FC0000E941010905860933C0270933D028093F1
:100FD0003E0290933F022091480230914902203D09
:100FE000374091F420913002309131024091320229
:100FF000509133020E94820E60933C0270933D0236
:1010000080933E0290933F02DF91CF911F910F9109
:10101000FF90EF900895CF93DF9385B115B826E048
:1010200040E051EE60E070E080E792E00E942B1219
:101030008CE393E00E9418198AB18C638AB9259ACF
:101040002D9A6BE670E08CE393E00E942C1960E22D
:1010500070E08CE393E00E94A5006FE070E08CE309
:1010600093E00E94A5008CE393E00E94A8196BE630
:1010700070E08CE393E00E942C1963E270E08CE353
:1010800093E00E94A50060E970E08CE393E00E9489
:10109000A5008CE393E00E94A8196AEF70E080E05D
:1010A00090E00E94A81561E371E080E792E00E9461
:1010B0007B131092490210924802CFE0D0E0809159
:1010C000480290914902803D27E092070CF079C0D8
:1010D000BE010E94E21B892B51F48CE00E94BE16D7
:1010E00061E0892B09F060E08CE00E948F160E947D
:1010F00032072091400230914102409142025091CA
:101100004302609138027091390280913A029091C5
:101110003B020E94830E60933802709339028093E1
:101120003A0290933B022091440230914502409153
:1011300046025091470260913402709135028091CD
:101140003602909137020E94830E609334027093AE
:101150003502809336029093370220913C02309101
:101160003D0240913E0250913F02609130027091E9
:10117000310280913202909133020E94830E60937B
:1011800030027093310280933202909333028BB11C
:101190008C638BB988EE93E00E94E4158BB18F705D
:1011A0008BB963E070E080E090E00E94A815809128
:1011B0004802909149020196909349028093480217
:1011C0007ECF20E030E04AEF54E460913802709125
:1011D000390280913A0290913B020E94660F60931F
:1011E00038027093390280933A0290933B0220E0D8
:1011F00030E04AEF54E460913402709135028091FE
:101200003602909137020E94660F60933402709309
:101210003502809336029093370220E030E04AEFA7
:1012200054E46091300270913102809132029091C9
:1012300033020E94660F60933002709331028093F4
:101240003202909333020E94200685B115B869E4FA
:1012500071E080E792E00E947B13809168008160DA
:101260008093680080916B00816080936B00809117
:101270006B00826080936B0080916B008460809330
:101280006B0080916B00886080936B008091E2011D
:101290009091E301865A94408135910538F06CE5D0
:1012A00071E080E792E00E947B13F0CF109222025F
:1012B00010922302109224021092250210920E0224
:1012C00010920F02109210021092110263E070E06F
:1012D00083E592E00E94441862E070E08DE492E0C1
:1012E0000E94441865E070E080E592E00E94441896
:1012F00064E070E08AE492E0DF91CF910C944418AE
:101300008F929F92AF92BF92CF92DF92EF92FF9215
:101310000F931F93CF93DF9369E170E08CE393E029
:101320000E942C1968EA70E08CE393E00E94A5000B
:101330008CE393E00E94A81946E050E069E170E078
:101340008CE393E00E94A5198CE393E00E9480183F
:101350000697D4F38CE393E00E948818982E8CE3D0
:1013600093E00E948818882E8CE393E00E948818EE
:10137000B82E8CE393E00E948818A82E8CE393E0AB
:101380000E948818D82E8CE393E00E948818C82EFB
:10139000F82CE12CB7016929072E000C880B990B5A
:1013A0000E9410102FE832E64FE953E40E94830EAA
:1013B0006093BC017093BD018093BE019093BF0107
:1013C0001A2D00E0B8016B29072E000C880B990B31
:1013D0000E94101026E636E642EE51E40E94820E8C
:1013E0006093C0017093C1018093C2019093C301C7
:1013F000DC2D80E0C82FBE016D29072E000C880B64
:10140000990B0E94101020E030E04AEF53E40E9454
:10141000820E6093B8017093B9018093BA019093E2
:10142000BB01DF91CF911F910F91FF90EF90DF9063
:10143000CF90BF90AF909F908F9008954F925F9202
:101440006F927F928F929F92AF92BF92CF92DF92D4
:10145000EF92FF920F931F93CF93DF93EC018B01D9
:101460000E948009C090C001D090C101E090C201EB
:10147000F090C30120E030E0A901C701B6010E944D
:10148000E71026013701181624F077FA709477F8E0
:1014900070948090BC019090BD01A090BE01B0906E
:1014A000BF0120E030E0A901C501B4010E94E710AE
:1014B000181624F0B7FAB094B7F8B094A5019401C7
:1014C000C301B2010E94830E2B013C018090B80140
:1014D0009090B901A090BA01B090BB0120E030E03B
:1014E000A901C501B4010E94E710181624F0C50136
:1014F000B401905802C0C501B401A30192010E9439
:10150000830E0E94D80F613070410CF496C0A50183
:101510009401C701B6010E94020F20E030E044E3CD
:1015200053E40E94F4102BED3FE049E450E40E94A4
:10153000660F6B017C016093B4017093B5018093D9
:10154000B6019093B70129EC35EE4FE75FE3688170
:1015500079818A819B810E94F4104B015C0127E113
:1015600037EB41ED59E3C701B6010E94F4109B012E
:10157000AC01C501B4010E94830E688379838A831C
:101580009B832091B8013091B9014091BA015091EB
:10159000BB016091BC017091BD018091BE01909131
:1015A000BF010E94020F20E030E044E353E40E94B8
:1015B000F4102BED3FE049E450E40E94660F6B010C
:1015C0007C016093B0017093B1018093B20190935C
:1015D000B30129EC35EE4FE75FE3F80160817181DB
:1015E000828193810E94F4104B015C0127E137EB6B
:1015F00041ED59E3C701B6010E94F4109B01AC0113
:10160000C501B4010E94830EF80160837183828357
:101610009383088119812A813B810093AC01109347
:10162000AD012093AE013093AF016093A801709398
:10163000A9018093AA019093AB01DF91CF911F91F3
:101640000F91FF90EF90DF90CF90BF90AF909F9061
:101650008F907F906F905F904F9008954F925F9220
:101660006F927F928F929F92AF92BF92CF92DF92B2
:10167000EF92FF920F931F93CF93DF930E94320755
:101680002AE432E944E652E460914002709141025A
:1016900080914202909143020E94660F2DEC3CEC37
:1016A0004CE45EE30E94F4106B017C012DEC3CECF9
:1016B0004CE45FE360911E0270911F028091200252
:1016C000909121020E94F4109B01AC01C701B60168
:1016D0000E94830E2B013C0160931E0270931F0237
:1016E00080932002909321022AE432E944E652E4F6
:1016F00060914402709145028091460290914702A8
:101700000E94660F2DEC3CEC4CE45EE30E94F4106A
:101710006B017C012DEC3CEC4CE45FE360910A0230
:1017200070910B0280910C0290910D020E94F410B6
:101730009B01AC01C701B6010E94830E4B015C0105
:1017400060930A0270930B0280930C0290930D0237
:101750002AE432E944E652E460913C0270913D0291
:1017600080913E0290913F020E94660F2DEC3CEC6E
:101770004CE45EE30E94F4106B017C012DEC3CEC28
:101780004CE45FE36091F6017091F7018091F801FC
:101790009091F9010E94F4109B01AC01C701B601C0
:1017A0000E94830E6093F6017093F7018093F80115
:1017B0009093F901C0901C01D0901D01E0901E0192
:1017C000F0901F01A7019601C301B2010E94E7102A
:1017D00087FF09C0A70196015058C301B2010E94BA
:1017E000610F181604F12091A4013091A5014091D8
:1017F000A6015091A701C301B2010E94F4109B0100
:10180000AC016091C8017091C9018091CA019091A9
:10181000CB010E94830E6093C8017093C90180932D
:10182000CA019093CB01A7019601C501B4010E94A2
:10183000E71087FF09C0A70196015058C501B40100
:101840000E94610F181604F12091A4013091A501A6
:101850004091A6015091A701C501B4010E94F41066
:101860009B01AC016091C4017091C5018091C601DA
:101870009091C7010E94830E6093C4017093C501CB
:101880008093C6019093C70164EC71E088EC91E00D
:101890000E941E0A8091E2019091E301863F24E0BC
:1018A00092076CF42091E0013091E1012A3134403B
:1018B00034F421E030E03093ED012093EC012091ED
:1018C000EC013091ED012130310591F4863F9440D7
:1018D0007CF48091E0019091E1018B3A954044F0D5
:1018E00082E090E09093ED018093EC010E94AD02C4
:1018F0008091EC019091ED010297A1F48091E201B9
:101900009091E301863F94406CF48091E0019091C6
:10191000E1018F39974034F01092ED011092EC0103
:101920000E94AD021092FA011092FB011092FC018C
:101930001092FD018091E2019091E301833E944079
:101940002CF16091E0017091E101673E45E0740780
:101950001CF0665E754006C0623D85E07807B4F411
:10196000625D7540072E000C880B990B0E941010C9
:1019700020E030E040E450E40E94660F6093FA01FA
:101980007093FB018093FC019093FD01C090AC012A
:10199000D090AD01E090AE01F090AF01D701C6014B
:1019A000B0588093220290932302A0932402B09314
:1019B0002502C091E601D091E701C73E25E0D2079C
:1019C000CCF06091000170910101072E000C880B92
:1019D000990B0E9410109B01AC01C701B6010E9437
:1019E000610F87FF37C0C65ED540BE01DD0F880B93
:1019F000990B20C0C23D45E0D40764F56091000119
:101A000070910101719561957109072E000C880B89
:101A1000990B0E9410109B01AC01C701B6010E94F6
:101A2000E7101816BCF4BE01625D7540072E000C6D
:101A3000880B990B0E94101020E030E040E451E444
:101A40000E94660F60932202709323028093240207
:101A500090932502C090A801D090A901E090AA011E
:101A6000F090AB01D701C601B05880930E0290935D
:101A70000F02A0931002B0931102C091E401D09123
:101A8000E501C73E85E0D807CCF060910001709178
:101A90000101072E000C880B990B0E9410109B016E
:101AA000AC01C701B6010E94610F87FF37C0C65E57
:101AB000D540BE01DD0F880B990B20C0C23D25E04B
:101AC000D20764F5609100017091010171956195F3
:101AD0007109072E000C880B990B0E9410109B01B6
:101AE000AC01C701B6010E94E7101816BCF4BE0194
:101AF000625D7540072E000C880B990B0E94101038
:101B000020E030E040E451E40E94660F60930E0252
:101B100070930F0280931002909311020E94280686
:101B20000E94EE028091E2019091E3019093030103
:101B3000809302012091EC013091ED0122303105BA
:101B400009F083C0C090F201D090F301E090F4015D
:101B5000F090F50100910602109107022091080211
:101B60003091090240911A0250911B0260911C02AF
:101B700070911D020E94650180915C0290915D024E
:101B8000803B944034F480EB94E090935D0280932A
:101B90005C0280915A0290915B02803B944034F445
:101BA00080EB94E090935B0280935A0280915802FC
:101BB00090915902803B944034F480EB94E09093F0
:101BC0005902809358028091560290915702803BAF
:101BD000944034F480EB94E0909357028093560243
:101BE00080915C0290915D028939984034F088E9D7
:101BF00098E090935D0280935C0280915A029091EC
:101C00005B028939984034F088E998E090935B0250
:101C100080935A02809158029091590289399840D4
:101C200034F088E998E090935902809358028091AB
:101C300056029091570289399840B4F088E998E0AB
:101C400090935702809356020FC088EE93E09093D2
:101C5000030180930201C12CD12C760197018601EA
:101C6000B701A6010E9465010E948315C090A001E2
:101C7000D090A101E090A201F090A301DC01CB0182
:101C80008C199D09AE09BF09803A9F40A105B10595
:101C900058F30E948315C090A001D090A101E0905C
:101CA000A201F090A3016C197D098E099F090E9481
:101CB0000E1020E034E244E759E40E94660F60937E
:101CC000A4017093A5018093A6019093A7010E949F
:101CD00083156093A0017093A1018093A20190935A
:101CE000A301DF91CF911F910F91FF90EF90DF90B3
:101CF000CF90BF90AF909F908F907F906F905F90AC
:101D00004F9008955058BB27AA270E949A0E0C9412
:101D1000AD100E949F1038F00E94A61020F039F4F8
:101D20009F3F19F426F40C9475100EF4E095E7FB30
:101D30000C946F10E92F0E94BE1058F3BA17620777
:101D400073078407950720F079F4A6F50C94E0104A
:101D50000EF4E0950B2EBA2FA02D0B01B9019001C6
:101D60000C01CA01A0011124FF27591B99F0593F0A
:101D700050F4503E68F11A16F040A22F232F342F52
:101D80004427585FF3CF469537952795A795F040A0
:101D90005395C9F77EF41F16BA0B620B730B840BB5
:101DA000BAF09150A1F0FF0FBB1F661F771F881F6D
:101DB000C2F70EC0BA0F621F731F841F48F48795C5
:101DC00077956795B795F7959E3F08F0B0CF9395B7
:101DD000880F08F09927EE0F9795879508950E9430
:101DE0009F1060F080E891E009F49EEF0E94A61039
:101DF00028F040E851E071F45EEF0CC00C947510CF
:101E00000C94E010E92FE0780E94BE1040F3092EF8
:101E1000052AB1F3261737074807590738F00E2E61
:101E200007F8E02569F0E025E0640AC0EF6307F8F1
:101E3000009407FADB01B9019D01DC01CA01AD0183
:101E4000EF930E947D0F0E94AD100E94320F5F91B0
:101E5000552339F02BED3FE049E450FD49EC0C945B
:101E6000830E0895DF93DD27B92FBF7740E85FE346
:101E70001616170648075B0718F4D92F0E94EC10B6
:101E80009F938F937F936F930E946111E8E6F0E038
:101E90000E9478100E94AD102F913F914F915F9159
:101EA0000E940711DD2351F09058A2EA2AED3FE08D
:101EB00049EC5FE3D0785D270E949A0EDF910C9485
:101EC000AD100E944B1008F481E008950E947A0F33
:101ED0000C94AD100E94A61058F00E949F1040F084
:101EE00029F45F3F29F00C946F1051110C94E1100C
:101EF0000C9475100E94BE1068F39923B1F355231A
:101F000091F3951B550BBB27AA276217730784070C
:101F100038F09F5F5F4F220F331F441FAA1FA9F3A2
:101F200035D00E2E3AF0E0E832D091505040E69590
:101F3000001CCAF72BD0FE2F29D0660F771F881FF1
:101F4000BB1F261737074807AB07B0E809F0BB0BE4
:101F5000802DBF01FF2793585F4F3AF09E3F5105F8
:101F600078F00C946F100C94E1105F3FE4F3983E0E
:101F7000D4F3869577956795B795F7959F5FC9F7E1
:101F8000880F911D9695879597F90895E1E0660F62
:101F9000771F881FBB1F621773078407BA0720F0DB
:101FA000621B730B840BBA0BEE1F88F7E095089544
:101FB0000E94DF0F6894B1110C94E11008950E9403
:101FC000C61088F09F5798F0B92F9927B751B0F0F5
:101FD000E1F0660F771F881F991F1AF0BA95C9F7AD
:101FE00014C0B13091F00E94E010B1E008950C945B
:101FF000E010672F782F8827B85F39F0B93FCCF30E
:10200000869577956795B395D9F73EF49095809529
:10201000709561957F4F8F4F9F4F0895E89409C049
:1020200097FB3EF490958095709561957F4F8F4F0B
:102030009F4F9923A9F0F92F96E9BB279395F69521
:10204000879577956795B795F111F8CFFAF4BB0F9F
:1020500011F460FF1BC06F5F7F4F8F4F9F4F16C003
:10206000882311F096E911C0772321F09EE8872F8D
:10207000762F05C0662371F096E8862F70E060E049
:102080002AF09A95660F771F881FDAF7880F9695C2
:10209000879597F90895990F0008550FAA0BE0E866
:1020A000FEEF16161706E807F907C0F0121613061A
:1020B000E407F50798F0621B730B840B950B39F45A
:1020C0000A2661F0232B242B252B21F408950A26C0
:1020D00009F4A140A6958FEF811D811D089597F900
:1020E0009F6780E870E060E008959FEF80EC0895BE
:1020F000DF93CF931F930F93FF92EF92DF927B01B9
:102100008C01689406C0DA2EEF010E940711FE01CF
:10211000E894A5912591359145915591A6F3EF014C
:102120000E949A0EFE019701A801DA9469F7DF90E8
:10213000EF90FF900F911F91CF91DF9108950024B0
:102140000A941616170618060906089500240A941C
:1021500012161306140605060895092E0394000CA2
:1021600011F4882352F0BB0F40F4BF2B11F460FF31
:1021700004C06F5F7F4F8F4F9F4F089557FD90585A
:10218000440F551F59F05F3F71F04795880F97FB3B
:10219000991F61F09F3F79F08795089512161306F5
:1021A0001406551FF2CF4695F1DF08C01616170624
:1021B0001806991FF1CF8695710561050894089559
:1021C000E894BB2766277727CB0197F908950E94EB
:1021D0004B1008F48FEF08959B01AC0160E070E0B4
:1021E00080E89FE30C94660F0E9407110C94AD10D9
:1021F0000E949F1038F00E94A61020F0952311F045
:102200000C946F100C94751011240C94E1100E9422
:10221000BE1070F3959FC1F3950F50E0551F629F5C
:10222000F001729FBB27F00DB11D639FAA27F00D2F
:10223000B11DAA1F649F6627B00DA11D661F829F56
:102240002227B00DA11D621F739FB00DA11D621F3B
:10225000839FA00D611D221F749F3327A00D611D58
:10226000231F849F600D211D822F762F6A2F11243A
:102270009F5750409AF0F1F088234AF0EE0FFF1F6D
:10228000BB1F661F771F881F91505040A9F79E3FC4
:10229000510580F00C946F100C94E1105F3FE4F353
:1022A000983ED4F3869577956795B795F795E7951A
:1022B0009F5FC1F7FE2B880F911D9695879597F923
:1022C00008959B01AC010C94F410FC01918D228DBA
:1022D000892F90E0805C9F4F821B91098F73992713
:1022E0000895FC01918D828D981731F0828DE80F51
:1022F000F11D858D90E008958FEF9FEF0895FC010B
:10230000918D828D981761F0828DDF01A80FB11D2C
:102310005D968C91928D9F5F9F73928F90E0089550
:102320008FEF9FEF089588EE92E1892B49F080E0CE
:1023300090E0892B29F00E94E81281110C94000092
:102340000895FC01848DDF01A80FB11DA35ABF4F72
:102350002C91848D90E001968F739927848FA689A4
:10236000B7892C93A089B1898C9180648C93938DCB
:10237000848D981306C00288F389E02D80818F7DBB
:1023800080830895EF92FF920F931F93CF93DF9373
:10239000EC0181E0888F9B8D8C8D981305C0E889B6
:1023A000F989808185FD24C0F62E0B8D10E00F5F2A
:1023B0001F4F0F731127E02E8C8DE8120CC00FB643
:1023C00007FCFACFE889F989808185FFF5CFCE0136
:1023D0000E94A111F1CF8B8DFE01E80FF11DE35A90
:1023E000FF4FF0820B8FEA89FB898081806207C0F2
:1023F000EE89FF896083E889F98980818064808320
:1024000081E090E0DF91CF911F910F91FF90EF90CD
:102410000895CF93DF93EC01888D8823C9F0EA8972
:10242000FB89808185FD05C0A889B9898C9186FDCD
:102430000FC00FB607FCF5CF808185FFF2CFA889CA
:10244000B9898C9185FFEDCFCE010E94A111E7CF14
:10245000DF91CF910895CF92DF92EF92FF921F9379
:10246000CF93DF93EC016A017B01122FE889F98990
:1024700082E080834115514E61057105B1F060E045
:1024800079E08DE390E0A70196010E94F61BDA0146
:10249000C9010197A109B109B695A79597958795A7
:1024A0009C01211580E13807A8F0E889F98910829C
:1024B00060E874E88EE190E0A70196010E94F61BA7
:1024C000DA01C9010197A109B109B695A7959795B8
:1024D00087959C01EC85FD853083EE85FF85208303
:1024E000188EEC89FD891083EA89FB8980818061DF
:1024F0008083EA89FB89808188608083EA89FB89FF
:10250000808180688083EA89FB8980818F7D8083D8
:10251000DF91CF911F91FF90EF90DF90CF900895C2
:102520001F920F920FB60F9211242F938F939F93A8
:10253000EF93FF93E0918002F09181028081E0911E
:102540008602F091870282FD12C0908180918902FB
:102550008F5F8F7320918A02821751F0E091890278
:10256000F0E0E059FD4F958F8093890201C0808192
:10257000FF91EF919F918F912F910F900FBE0F9030
:102580001F9018951F920F920FB60F9211242F9340
:102590003F934F935F936F937F938F939F93AF93EB
:1025A000BF93EF93FF9380E792E00E94A111FF9108
:1025B000EF91BF91AF919F918F917F916F915F91BB
:1025C0004F913F912F910F900FBE0F901F90189534
:1025D00080E792E00E94651121E0892B09F420E058
:1025E000822F0895E0E7F2E01382128288EE93E0F2
:1025F000A0E0B0E084839583A683B78385E791E06C
:102600009183808385EC90E09587848784EC90E0CB
:102610009787868780EC90E0918B808B81EC90E0AF
:10262000938B828B82EC90E0958B848B86EC90E090
:10263000978B868B118E128E138E148E08950895AB
:102640000E94EF150E941F130E940B08C3E9D1E1FD
:102650000E942E0B2097E1F30E949311F9CFCF92A5
:10266000DF92EF92FF920F931F93CF93DF936C0152
:102670007A018B01C0E0D0E0CE15DF0581F0D801F2
:102680006D918D01D601ED91FC910190F081E02DCD
:10269000C6010995892B11F02196EECF7E01C70165
:1026A000DF91CF911F910F91FF90EF90DF90CF902E
:1026B00008956115710579F0FB0101900020E9F79B
:1026C0003197AF01461B570BDC01ED91FC91028065
:1026D000F381E02D099480E090E008950C94591363
:1026E000DC01ED91FC910190F081E02D099461E80D
:1026F00071E00C9459130F931F93CF93DF93EC0168
:102700000E9459138C01CE010E947713800F911FF4
:10271000DF91CF911F910F9108958F929F92AF9269
:10272000BF92EF92FF920F931F93CF93DF93CDB79A
:10273000DEB7A1970FB6F894DEBF0FBECDBF7C0108
:10274000FA01CB0119A2223008F42AE08E010F5DB4
:102750001F4F822E912CA12CB12CBF01A5019401F9
:102760000E94F61BF901CA01015011096A3010F4E8
:10277000605D01C0695CD8016C93232B242B252B51
:1027800061F7B801C7010E945913A1960FB6F894DA
:10279000DEBF0FBECDBFDF91CF911F910F91FF9094
:1027A000EF90BF90AF909F908F90089521153105C5
:1027B00041F4DC01ED91FC910190F081E02D642F5A
:1027C00009940C948D139A01AB0160E070E00C94B5
:1027D000D613CF92DF92EF92FF920F931F93CF9376
:1027E000DF932115310581F4DC01ED91FC9101901D
:1027F000F081E02D642FDF91CF911F910F91FF9019
:10280000EF90DF90CF9009942A30310501F577FFE2
:102810001DC06A017B01EC016DE20E9470138C0106
:1028200044275527BA014C195D096E097F092AE032
:10283000CE010E948D13800F911FDF91CF911F91C8
:102840000F91FF90EF90DF90CF9008952AE0DF91F5
:10285000CF911F910F91FF90EF90DF90CF900C944C
:102860008D139A01AB01770F660B770B0C94E9136C
:102870000F931F93CF93DF93EC010E9431148C01CF
:10288000CE010E947713800F911FDF91CF911F918E
:102890000F9108957F928F929F92AF92BF92CF92A5
:1028A000DF92EF92FF920F931F93CF93DF938C01F0
:1028B0006A017B01722E9A01AB01C701B6010E9429
:1028C000D11B882319F064E871E027C04601570145
:1028D000E894B7F82FEF3FEF4FE75FE7C501B4018A
:1028E0000E94D11B81110DC02FEF3FEF4FE75FE733
:1028F000C501B4010E94610F18161CF468E871E06C
:102900000CC02FEF3FEF4FE75FE4C701B6010E9415
:10291000E710181694F46CE871E0C801DF91CF91CC
:102920001F910F91FF90EF90DF90CF90BF90AF90ED
:102930009F908F907F900C9459132FEF3FEF4FE7AC
:102940005FECC701B6010E94610F87FDE4CF20E074
:1029500030E0A901C701B6010E94610F87FF0AC0DC
:102960006DE2C8010E947013EC01F7FAF094F7F8D9
:10297000F09402C0C0E0D0E0B12C60E070E080E0F4
:102980009FE37B1441F020E030E040E251E40E94FC
:10299000660FB394F6CFA70196010E94830E6B01D8
:1029A0007C010E94DF0F4B015C012AE0AB01BC01FE
:1029B000C8010E948D13C80FD91F7720B9F1C50136
:1029C000B4010E940E109B01AC01C701B6010E9428
:1029D000820E6B017C016EE2C8010E947013C80F69
:1029E000D91F20E030E040E251E4C701B6010E9467
:1029F000F4104B015C010E94DF0F6B017C014AE087
:102A000050E0C8010E94E313C80FD91FB60180E04F
:102A100090E00E940E109B01AC01C501B4010E9420
:102A2000820E6B017C017A947110DBCFCE01DF91B5
:102A3000CF911F910F91FF90EF90DF90CF90BF90BB
:102A4000AF909F908F907F9008950C944A140F93AD
:102A50001F93CF93DF93EC010E944A148C01CE01A7
:102A60000E947713800F911FDF91CF911F910F91DB
:102A700008951F920F920FB60F9211242F933F9338
:102A80008F939F93AF93BF9380910E0390910F0309
:102A9000A0911003B091110330910D0323E0230F97
:102AA0002D3720F40196A11DB11D05C026E8230F86
:102AB0000296A11DB11D20930D0380930E039093E8
:102AC0000F03A0931003B093110380911203909110
:102AD0001303A0911403B09115030196A11DB11D1C
:102AE0008093120390931303A0931403B0931503E0
:102AF000BF91AF919F918F913F912F910F900FBEFA
:102B00000F901F9018953FB7F89480911203909101
:102B10001303A0911403B091150326B5A89B05C01B
:102B20002F3F19F00196A11DB11D3FBFBA2FA92F4C
:102B3000982F8827820F911DA11DB11DBC01CD01C9
:102B400042E0660F771F881F991F4A95D1F70895B5
:102B50008F929F92AF92BF92CF92DF92EF92FF92AD
:102B60006B017C010E9483154B015C01C114D104EF
:102B7000E104F10401F10E94AF190E948315DC0108
:102B8000CB0188199909AA09BB09883E9340A10580
:102B9000B10560F321E0C21AD108E108F10888EE1E
:102BA000880E83E0981EA11CB11CC114D104E1045D
:102BB000F10419F7DBCFFF90EF90DF90CF90BF903B
:102BC000AF909F908F9008958230910538F0880FD4
:102BD000991F880F991F05970197F1F70895789429
:102BE00084B5826084BD84B5816084BD85B5826012
:102BF00085BD85B5816085BDEEE6F0E080818160B0
:102C00008083E1E8F0E010828081826080838081AF
:102C100081608083E0E8F0E0808181608083E1EB87
:102C2000F0E0808184608083E0EBF0E0808181606F
:102C30008083EAE7F0E08081846080838081826025
:102C4000808380818160808380818068808310920E
:102C5000C1000895833081F028F4813099F08230EA
:102C6000A1F008958730A9F08830B9F08430D1F40C
:102C7000809180008F7D03C0809180008F7780934A
:102C80008000089584B58F7702C084B58F7D84BDA0
:102C900008958091B0008F7703C08091B0008F7D40
:102CA0008093B0000895CF93DF9390E0FC01E65548
:102CB000FF4F2491FC01E254FF4F8491882361F17E
:102CC00090E0880F991FFC01EA51FF4FC591D49104
:102CD000FC01E452FF4FA591B491611109C09FB767
:102CE000F8948881209582238883EC912E230BC051
:102CF000623061F49FB7F8948881322F3095832336
:102D00008883EC912E2B2C939FBF06C08FB7F8942D
:102D1000E8812E2B28838FBFDF91CF9108951F93D9
:102D2000CF93DF93282F30E0F901EA56FF4F8491CB
:102D3000F901E655FF4FD491F901E254FF4FC491D8
:102D4000CC23C1F0162F81110E942A16EC2FF0E03F
:102D5000EE0FFF1FE452FF4FA591B4919FB7F89477
:102D6000111104C08C91D095D82302C0EC91DE2BB8
:102D7000DC939FBFDF91CF911F910895CF93DF9395
:102D8000282F30E0F901EA56FF4F8491F901E6550A
:102D9000FF4FD491F901E254FF4FC491CC2391F03D
:102DA00081110E942A16EC2FF0E0EE0FFF1FEE5269
:102DB000FF4FA591B491EC91ED2381E090E021F4D7
:102DC00080E002C080E090E0DF91CF9108951F92F3
:102DD0000F920FB60F9211242F933F934F935F934F
:102DE0006F937F938F939F93AF93BF93EF93FF93D3
:102DF0008091170387FF05C0109285001092840010
:102E00001BC020911703022E000C330B8091160378
:102E100090E02817390784F480911703082E000CDE
:102E2000990BFC01EE0FFF1F8E0F9F1FFC01E85E48
:102E3000FC4F808186FD15C0809117038F5F8093C2
:102E4000170320911703022E000C330B80911603F9
:102E500090E028173907C4F4809117038C3064F18F
:102E600013C080911703082E000C990BFC01EE0F84
:102E7000FF1F8E0F9F1FFC01E85EFC4F808160E00A
:102E80008F730E948F16D8CF809184009091850017
:102E9000049680349C4918F480E49CE905C0809134
:102EA0008400909185000496909389008093880017
:102EB0008FEF809317033BC02091840030918500F1
:102EC00080911703082E000C990BFC01EE0FFF1FD9
:102ED0008E0F9F1FFC01E85EFC4F81819281820F63
:102EE000931F909389008093880080911703082E88
:102EF000000C990BFC01EE0FFF1F8E0F9F1FFC01B2
:102F0000E85EFC4F808186FF12C080911703082E77
:102F1000000C990BFC01EE0FFF1F8E0F9F1FFC0191
:102F2000E85EFC4F808161E08F730E948F16FF91F5
:102F3000EF91BF91AF919F918F917F916F915F9131
:102F40004F913F912F910F900FBE0F901F901895AA
:102F5000FC01909116039C30A0F481E0890F8093CE
:102F600016039083892F90E0FC01EE0FFF1F8E0F58
:102F70009F1FFC01E85EFC4F88EB9BE092838183FE
:102F800008958FEF80830895DF92EF92FF920F9361
:102F90001F93CF93DF93EC01D62E7A0189018881AC
:102FA0008C3008F068C061E08D2D0E945316888136
:102FB000E82FF0E09F01220F331FE20FF31FE85EBE
:102FC000FC4F9D2D9F732081207CD22ED92AD08248
:102FD00020E232E02E193F0937FF02C02D5F3F4F3C
:102FE0003595279535952795298320E639E0201BCF
:102FF000310B37FF02C02D5F3F4F35952795359533
:1030000027952A832CE0622F0E94D61B289FB001AF
:10301000112440E050E09B01240F351FF901EE0F11
:10302000FF1F2E0F3F1FF901E85EFC4F908196FDB8
:1030300016C04F5F5F4F4C30510569F781110FC0CB
:103040001092800082E0809381001092850010929F
:103050008400B19A80916F00826080936F00E88154
:10306000F0E0CF01880F991FE80FF91FE85EFC4FD1
:103070008081806480838881DF91CF911F910F913F
:10308000FF90EF90DF90089520E639E040E252E0B3
:103090000C94C417FC0190819C3088F5818128E84C
:1030A00030E0281B310987FD3395220F331F220F93
:1030B000331F6217730784F0828148E552E0481B92
:1030C000510987FD5395440F551F440F551F9B0110
:1030D000461757070CF49A0122503109220F331F6B
:1030E0004FB7F894892F90E0FC01EE0FFF1F8E0F71
:1030F0009F1FFC01E85EFC4F328321834FBF089580
:1031000080916C0390E020916D03821B91090895DA
:1031100090916D0380916C03981750F4E92FF0E0C3
:10312000E259FC4F208130E09F5F90936D0302C015
:103130002FEF3FEFC9010895E0916D0380916C037B
:10314000E81730F4F0E0E259FC4F808190E00895F8
:103150008FEF9FEF08950895CF92DF92EF92FF9245
:103160000F931F93CF93DF937C01CB018A012091B2
:103170004803222389F0EB016B01C40ED51ECC1548
:10318000DD0569F06991D701ED91FC910190F08125
:10319000E02DC7010995F3CF642F0E946C1AC80176
:1031A000DF91CF911F910F91FF90EF90DF90CF9023
:1031B0000895CF93DF931F92CDB7DEB76983209137
:1031C00048032223D1F020914903203240F021E02E
:1031D00030E0FC013383228380E090E015C08091D1
:1031E0004A03E82FF0E0E55BFC4F998190838F5F05
:1031F00080934A038093490305C061E0CE010196A4
:103200000E946C1A81E090E00F90DF91CF910895B9
:10321000FC011382128288EE93E0A0E0B0E0848388
:103220009583A683B78384E991E091838083089591
:1032300010926D0310926C0310924A03109249038E
:103240000C94B01981E08093480360936B03109253
:103250004A031092490308950C9422190F93062FE4
:1032600021E0409149036BE473E080916B030E947D
:10327000161A10924A0310924903109248030F91B4
:1032800008954F925F926F927F92AF92BF92CF92CA
:10329000EF92FF920F931F93CF93DF935C01F62E73
:1032A000D42F28013901EE2021F10E942219CE2DC0
:1032B000C43008F0C3E0C150C0F028E0C29FC00194
:1032C0001124A301920104C056954795379527957F
:1032D0008A95D2F7CA01B901D501ED91FC9101900F
:1032E000F081E02DC5010995E6CF60E0C5010E949F
:1032F0002E194D2FD13208F040E22C2D6EE673E0EE
:103300008F2D0E94CE1910926D0380936C03DF9174
:10331000CF911F910F91FF90EF90CF90BF90AF9002
:103320007F906F905F904F900895CF92EF920F93A0
:103330001F93C22EE12C00E010E098010E94411979
:103340001F910F91EF90CF90089521E00C94951963
:1033500061E00C942E198CE393E00C940819089505
:103360001092FB0381E08093F9031092F80361E06F
:1033700082E10E948F1661E083E10E948F16E9EBE3
:10338000F0E080818E7F808380818D7F808388E4E0
:103390008093B80085E48093BC000895413208F022
:1033A00043C09091FB039111FCCF91E09093FB03FC
:1033B0002093F9032FEF20938E031092D303240F51
:1033C0002093D2039093FA039091FA03880F892BEC
:1033D0008093FA038091F803813061F41092F8032E
:1033E0008091FA038093BB008091BC0083FDF8CFED
:1033F00085EC01C085EE8093BC008091FB03813099
:10340000E1F38091D303841710F44091D303A4ED2A
:10341000B3E0962FFB018E2F891B841718F48D9132
:103420008193F9CF842F089580E008950F9341325E
:1034300008F04AC09091FB039111FCCF32E0309329
:10344000FB030093F9033FEF30938E031092D303F5
:103450004093D203562FA4EDB3E0FB013E2F351B62
:10346000341718F431913D93F9CF1092FA0330914B
:10347000FA03880F832B8093FA038091F80381303D
:1034800061F41092F8038091FA038093BB0080915D
:10349000BC0083FDF8CF85EC01C085EE8093BC00B5
:1034A000222321F08091FB038230D1F380918E039F
:1034B0008F3F79F080918E03803241F080918E03AE
:1034C000803331F094E005C091E003C092E001C088
:1034D00093E0892F0F9108954091B003262F30E09B
:1034E000240F311D21323105DCF42091FB032430FF
:1034F000C9F4FC0180E090E0861758F43091B003E5
:103500002191DC01AE54BC4FA30FB11D2C93019649
:10351000F3CF8091B003680F6093B00380E008950B
:1035200081E0089582E0089585ED8093BC0080914C
:10353000BC0084FDFCCF1092FB03089585EC8093C2
:10354000BC001092FB0308951F920F920FB60F92CA
:1035500011242F933F934F935F936F937F938F9398
:103560009F93AF93BF93EF93FF938091B900887FB0
:10357000803609F49EC078F5883209F45DC090F475
:10358000803109F456C038F4882309F4F5C0883036
:1035900009F44FC0F5C0883109F44EC0803209F4F7
:1035A0005FC0EEC0803409F46AC058F4803309F477
:1035B00057C0883309F0E4C080938E030E949E1A9E
:1035C000DFC0803509F44FC0883509F45DC0883408
:1035D00009F0D6C0D3C0883909F4C4C0A8F488372C
:1035E00009F467C038F4883609F463C0803709F4F9
:1035F00060C0C6C0883809F4B5C0803909F45FC01E
:10360000803809F0BDC05BC0803B09F483C038F44A
:10361000803A09F466C0883A09F47CC0B1C0803CA5
:1036200009F4A4C0883C09F4A1C0883B09F487C010
:10363000A7C08091FA0310C09091D3038091D20368
:10364000981770F5E091D30381E08E0F8093D30338
:10365000F0E0EC52FC4F80818093BB0085EC83C08E
:1036600080938E038BC0E091D30381E08E0F809313
:10367000D3038091BB00F0E0EC52FC4F808390912B
:10368000D3038091D2036BC0E091D30381E08E0F0E
:103690008093D3038091BB00F0E0EC52FC4F808319
:1036A0008091F90381116AC081E08093F80384EA74
:1036B0005EC083E08093FB0310928F03CFCF809195
:1036C0008F03803208F04EC0E0918F0381E08E0FAF
:1036D00080938F038091BB00F0E0E057FC4F808324
:1036E000BDCF0E949E1A80918F03803230F4E0910A
:1036F0008F03F0E0E057FC4F108260918F0370E081
:10370000E091F403F091F50380E993E009951092BC
:103710008F0336C084E08093FB031092B1031092B4
:10372000B003E091F603F091F70309958091B0039F
:10373000811105C081E08093B0031092B203E09143
:10374000B10381E08E0F8093B103F0E0EE54FC4FA3
:1037500080818093BB009091B1038091B003981752
:1037600008F47CCF85E88093BC000AC085EC809388
:10377000BC001092FB0304C010928E030E94941AA6
:10378000FF91EF91BF91AF919F918F917F916F9139
:103790005F914F913F912F910F900FBE0F901F900F
:1037A00018950E944B10880B990B0895991B79E08E
:1037B00004C0991F961708F0961B881F7A95C9F7C1
:1037C0008095089597FB072E16F4009407D077FD97
:1037D00009D00E94181C07FC05D03EF490958195F5
:1037E0009F4F0895709561957F4F0895A1E21A2E1D
:1037F000AA1BBB1BFD010DC0AA1FBB1FEE1FFF1F95
:10380000A217B307E407F50720F0A21BB30BE40BE4
:10381000F50B661F771F881F991F1A9469F760952B
:103820007095809590959B01AC01BD01CF010895E5
:10383000AA1BBB1B51E107C0AA1FBB1FA617B707D6
:1038400010F0A61BB70B881F991F5A95A9F78095F2
:103850009095BC01CD010895EE0FFF1F0590F491E6
:08386000E02D0994F894FFCF5C
:103868001E00E60590010AD7A33C000080409001A5
:1038780000007041CDCC4C3D6666A63F0000803FFD
:10388800202020200072503D0072493D0072443DC6
:1038980000696E6974646F6E652043616C69627259
:1038A8006174696E672E2E2E005761697420666FE9
:1038B8007220726563656976657221005761697463
:1038C800696E6720466F72207468726F74746C65D5
:1038D8000000000000C2112F1365117F117111093A
:1038E800120D0A006E616E00696E66006F766600E2
:1038F80000000000D918AC18801888189C18AB185C
:04000005008001EC8A
:00000001FF
